:0C0000000C9457000C9400000C940000BD
:10000C000C9400000C9400000C9400000C94000064
:10001C000C9400000C9400000C9400000C94000054
:10002C000C9400000C9400000C9400000C94000044
:10003C000C9400000C9400000C9400000C94000034
:10004C000C9400000C940000010000003132333499
:10005C0035363738392A30233132333473616C6199
:10006C006D00646F726F7374006E6120646F726FD9
:10007C007374000080C00400060054000C0077016B
:10008C00580004008301640006006001680007004A
:10009C0066016E000A006D01750002008801800087
:1000AC000000F894EE27ECBBF1E0FBBFEBBFE5BF23
:1000BC008DE0A2E0BB27ED938A95E9F780E094E010
:1000CC00A0E6ED930197E9F7E2E8F0E085919591D0
:1000DC00009761F0A591B59105901590BF01F001C5
:1000EC0005900D920197E1F7FB01F0CFEFE5EDBF25
:1000FC00E4E0EEBFC0E6D1E00C948400A0E1E5D0D2
:10010C00E0EFE7BBEFEFE8BBE1E00BD1A0E6B1E03D
:10011C00CBD0A6E9B0E00E94BC01A5D0E8B3EF704B
:10012C0003D1EFE0E415D1F7A4E1B0E00E94BC01EB
:10013C00E6B3EF704E2EEFE0E415B1F3EFEEF4D032
:10014C00EFE0E41511F0552411C0EFEDEDD0EFE028
:10015C00E41519F0E1E05E2E09C0EFEBE5D0EFE01D
:10016C00E41519F0E2E05E2E01C0E8CFE4E0F0E027
:10017C00E815F905B9F4E1E0F0E0E615F70529F426
:10018C00E3E0CFD0A6E6B1E004C0E3E0CAD0ADE630
:10019C00B1E08AD0A2E3B0E00E94BC0164D0882414
:1001AC00992432C0EEE0E41561F4C3D0AC91E52D96
:1001BC00F0E0E958FE4FE081EA1711F0662477244D
:1001CC0020C0EDE0E41549F4B4D00C90AAE7B1E0FE
:1001DC00BBD011F06624772414C0EBE0E41549F48D
:1001EC00A8D00C90ADE7B1E0AFD011F06624772425
:1001FC0008C09FD00C90A0E8B1E0A6D011F0662406
:10020C007724F40131964F0189CFFFCFAA93EBB33A
:10021C00EF70AE2FE881E07FEA2BEBBB8DE08A9587
:10022C00F1F7DA9A8DE08A95F1F7DA988DE08A95F4
:10023C00F1F775C0AA93A881E9DFE881E295E8831C
:10024C00A881E4DF85E88A95F1F769C0AA93E88173
:10025C00F0E0E857FE4FE081A981AE0FEBDFD980CB
:10026C00C88022960895A2E075D0ACE0E3DFA1E04F
:10027C0071D0E0E0CE2EDE2E0895AA93A881AA308C
:10028C0021F0E0918C01DE1648F0E0E0EA93C39493
:10029C00AC2DDCDFA881AA3009F441C0D394D89AE4
:1002AC00A881C8DFD8983BC0BA93AA931A93A981A6
:1002BC00BA81ED91A983BA831E2FE03019F0A12FDA
:1002CC00DCDFF5CF188123960895AA93EAB3E06F8B
:1002DC00EABBD29AD09AD19ADA98D898D998E88170
:1002EC00E0938C01E058E0938A01E881E054E093BC
:1002FC008B01A4E1B0E00E94BC0131D030D02FD0F2
:10030C00A0E284DF88EC90E00197F1F7A8E292DF9D
:10031C00A4E090DFA5E88EDFA6E08CDFA4DF2196B9
:10032C000895EA93A0E092CFE8BBE6B3EF704E2EAF
:10033C000895AAE2A2DFAAE0B0E00E94BC01A3E803
:10034C00B1E0A80DB91D0895EE27A50DBE1FEC91C7
:10035C00E01508956FDFA3E0B0E00C94BC01A0E3BE
:10036C0055DF88EC90E00197F1F70895109639F07D
:10037C0080ED97E00197F1F7A8951197C9F70895CB
:00000001FF
